:020000040000FA
:06000000F3EF14F0120002
:060008000DEF07F01200ED
:06003A0001005A2A00003B
:08004000300100001F00000068
:08004800D9CFE6FFDACFE6FF95
:10005000E1CFD9FFE2CFDAFFE652E652DE6ADD6A8F
:10006000938A8A9A939A300EE66E0FEC15F0E55259
:10007000938A180EE66E0FEC15F0E5528150200BB6
:10008000200A01E0010E146E156A14BE156814C032
:10009000DEFF15C0DDFFDF5000D0E552E552E5522E
:1000A000E5CFDAFFE7CFD9FF1200D9CFE6FFDACFED
:1000B000E6FFE1CFD9FFE2CFDAFFE652DF6ADFCF1A
:1000C00014F0080EE76E1418E8AE02D0E73402D040
:1000D000E750145C22E28A9A939A010EE66E0FECC6
:1000E00015F0E552FD0EDB50010BE8B0938AE8A055
:1000F000939A050EE66E0FEC15F0E552938A020E08
:10010000E66E0FEC15F0E552FD0EDB407F0BE76E5F
:10011000FD0EE7CFDBFFDF2AD2D7E552E552E5CF70
:10012000DAFFE7CFD9FF1200D9CFE6FFDACFE6FF3B
:10013000E1CFD9FFE2CFDAFFE652E652DF6A010EE5
:10014000DB6A010EDBCF14F0080EE76E1418E8AE80
:1001500002D0E73402D0E750145C24E28A9A939AE2
:1001600000000000938A0000000000000000000072
:100170000000000000008150200B01E0010EF36E32
:10018000010EDB5004E0D890F336E806FCE1F350B2
:10019000DF10DF6E050EE66E0FEC15F0E552010E76
:1001A000DB2ACFD7DF5000D0E552E552E552E5CF4C
:1001B000DAFFE7CFD9FF12000000000000000000C6
:1001C000000000000000000000000000000000002F
:1001D0000000000000D01200050EE66ED3EC14F013
:1001E000E55200D012000F0EE66ED3EC14F0E5528B
:1001F00000D01200836A956A280EE66E27EC10F094
:10020000E5528DEC10F0000901E0FBD7E66A91ECB5
:1002100011F0E552060EE66EC0EC11F0E5528DECE1
:1002200010F0000901E0FBD70F0EE66EC0EC11F0F4
:10023000E5528DEC10F0000901E0FBD700D0120070
:10024000970EE66E45EC14F0E5521200F28AF29435
:10025000F1846A0EE66E670EE66E29EC14F0E55244
:10026000E552959683860101326B336B12000101D2
:10027000010E041901E1055107E10AEC14F0F3CF76
:1002800006F1F4CF07F190D00101053504E20451E5
:100290000108000E055501E387D00101046B056BD1
:1002A0000AEC14F0F3CF08F1F4CF09F10101102B9F
:1002B000000E1123010106510101085D146E095160
:1002C00001010755156E14C015F0146A640E0D6E09
:1002D0000E6A14C008F015C009F0ABEC14F008C0A9
:1002E00014F009C015F014C008F015C009F0B3EC03
:1002F0000DF007C00AF108C00BF109C00CF10AC0EB
:100300000DF10AC107F00BC108F00CC109F00DC1D5
:100310000AF072EC0FF008C00EF109C00FF10101F4
:100320000F3504E20E513208000E0F5504E20101B0
:10033000122B000E13238DEC10F0000901E0FBD707
:10034000400EE66E91EC11F0E5528DEC10F00009D4
:1003500001E0FBD76E0EE66ED3EC14F0E5528DECA7
:1003600010F0000901E0FBD70EC1E6FF0FC1E6FF68
:10037000010EE66E260EE66E000EE66EE60EE66EE8
:10038000000EE66E1CEC12F0146E070EE15C02E249
:10039000E16AE552E16E1450E60EE66E000EE66E7E
:1003A000E5EC10F0E552E5521200010E0101326F4A
:1003B000336B0101342B000E35238396F09826EC25
:1003C00015F08DEC10F0000901E0FBD7E66A91EC26
:1003D00011F0E5528DEC10F0000901E0FBD76E0E34
:1003E000E66ED3EC14F0E5528DEC10F0000901E05C
:1003F000FBD712C108F013C109F0B5EC0DF007C02E
:1004000018F008C019F009C01AF00AC01BF010C19A
:1004100008F011C109F0B5EC0DF007C01CF008C0E0
:100420001DF009C01EF00AC01FF01CC00CF01DC05A
:100430000DF01EC00EF01FC00FF018C007F019C05D
:1004400008F01AC009F01BC00AF05FEC0EF007C0FC
:1004500014F008C015F009C016F00AC017F00C6AB5
:100460000D6AC80E0E6E420E0F6E14C007F015C056
:1004700008F016C009F017C00AF0B2EC0EF007C081
:1004800014F108C015F109C016F10AC017F114C122
:1004900007F015C108F016C109F017C10AF072EC97
:1004A0000FF008C018F109C019F118C1E6FF19C111
:1004B000E6FFF80EE66E250EE66E000EE66EE60E20
:1004C000E66E000EE66E1CEC12F0146E070EE15C98
:1004D00002E2E16AE552E16E1450E60EE66E000EAD
:1004E000E66EE5EC10F0E552E5520101010E32191D
:1004F00001E1335101E0ECD08DEC10F0000901E096
:10050000FBD7140EE66E91EC11F0E5528DEC10F075
:10051000000901E0FBD76E0EE66ED3EC14F0E55255
:100520008DEC10F0000901E0FBD7060E086E096A99
:1005300030C10DF031C10EF045EC0FF006C030F1C6
:1005400007C031F130C1E0F031C1E1F001013E51AD
:100550003F1101E089D000010001E4510101302583
:100560000001E46F00010001E551010131210001AA
:10057000E56FE4C008F0E5C009F034C10DF035C105
:100580000EF01FEC0FF0B5EC0DF007C036F108C00F
:1005900037F109C038F10AC039F136C107F037C167
:1005A00008F038C109F039C10AF072EC0FF008C048
:1005B0003AF109C03BF130C1E6FF31C1E6FFE70E79
:1005C000E66E250EE66E000EE66EE60EE66E000E98
:1005D000E66E1CEC12F0146E070EE15C02E2E16ABA
:1005E000E552E16E1450E60EE66E000EE66EE5ECA6
:1005F00010F0E552E5528DEC10F0000901E0FBD758
:10060000540EE66E91EC11F0E5528DEC10F00009FD
:1006100001E0FBD76E0EE66ED3EC14F0E5528DECE4
:1006200010F0000901E0FBD73AC1E6FF3BC1E6FF4D
:10063000D80EE66E250EE66E000EE66EE60EE66E4F
:10064000000EE66E1CEC12F0146E070EE15C02E286
:10065000E16AE552E16E1450E60EE66E000EE66EBB
:10066000E5EC10F0E552E5520001E13504E2E0511D
:100670006408000EE15511E2060EE66E61EC14F01E
:10068000E552D00EE66E7CEC14F0E552E668010E01
:10069000E66EB7EC13F0E552E5520001E13504E2F5
:1006A000E0516408000EE15504E323EC15F029EC59
:1006B00015F00101010E3E1901E13F5109E17BDA1C
:1006C000A0DABADA3ADB85DB90DB01013E6B3F6BE7
:1006D00012000101325133113DE10101302B000EB6
:1006E00031238DEC10F0000901E0FBD7140EE66E0B
:1006F00091EC11F0E5528DEC10F0000901E0FBD710
:100700006E0EE66ED3EC14F0E5528DEC10F000099D
:1007100001E0FBD730C1E6FF31C1E6FFC60EE66E51
:10072000250EE66E000EE66EE60EE66E000EE66E36
:100730001CEC12F0146E070EE15C02E2E16AE55275
:10074000E16E1450E60EE66E000EE66EE5EC10F07B
:10075000E552E5521200F08EF198F088F290970E73
:10076000E66E45EC14F0E5526A0EE66E670EE66E34
:1007700029EC14F0E552E5520101306B316B0101B7
:10078000326B336B0101126B136B0101106B116B38
:100790001200D9CFE6FFDACFE6FFE1CFD9FFE2CFF3
:1007A000DAFF160EE12402E3E168E652E16EF00E94
:1007B0008214DE6EDD6A000EDBCF08F0010EDBCFA7
:1007C00009F0F00E081801E1095001E1B7D1E00E7F
:1007D000081801E1095001E19AD1D00E081801E191
:1007E000095001E17DD1C00E081801E1095001E175
:1007F00060D1B00E081801E1095001E143D1A00E0B
:10080000081801E1095001E126D1900E081801E114
:10081000095001E109D1800E081801E1095001E1F8
:10082000ECD0700E081801E1095001E1CFD0600E44
:10083000081801E1095001E1B2D0500E081801E199
:10084000095001E195D0400E081801E1095001E17D
:1008500078D0300E081801E109505CE0200E08182D
:1008600001E1095040E0100E081801E109501EE0B6
:10087000085001E1095001E078D1C40EE66E250E62
:10088000E66E000EE66ED950020FE66E000EDA201C
:10089000E66E1CEC12F0146E050EE15C02E2E16AF9
:1008A000E552E16E145057DFF0885FD1C20EE66E5C
:1008B000250EE66E000EE66ED950020FE66E000EB3
:1008C000DA20E66E1CEC12F0146E050EE15C02E21A
:1008D000E16AE552E16E1450010E01013E6F3F6B7B
:1008E0003ADFF08842D1C00EE66E250EE66E000EAD
:1008F000E66ED950020FE66E000EDA20E66E1CECB2
:1009000012F0146E050EE15C02E2E16AE552E16E5E
:1009100014502BD1BE0EE66E250EE66E000EE66E6E
:10092000D950020FE66E000EDA20E66E1CEC12F0D3
:10093000146E050EE15C02E2E16AE552E16E1450CC
:1009400014D1BC0EE66E250EE66E000EE66ED95092
:10095000020FE66E000EDA20E66E1CEC12F0146E4A
:10096000050EE15C02E2E16AE552E16E1450FDD051
:10097000BA0EE66E250EE66E000EE66ED950020F38
:10098000E66E000EDA20E66E1CEC12F0146E050E18
:10099000E15C02E2E16AE552E16E1450E6D0B80E85
:1009A000E66E250EE66E000EE66ED950020FE66E7C
:1009B000000EDA20E66E1CEC12F0146E050EE15CFF
:1009C00002E2E16AE552E16E1450CFD0B60EE66E57
:1009D000250EE66E000EE66ED950020FE66E000E92
:1009E000DA20E66E1CEC12F0146E050EE15C02E2F9
:1009F000E16AE552E16E1450B8D0B40EE66E250EF1
:100A0000E66E000EE66ED950020FE66E000EDA209A
:100A1000E66E1CEC12F0146E050EE15C02E2E16A77
:100A2000E552E16E1450A1D0B20EE66E250EE66ED0
:100A3000000EE66ED950020FE66E000EDA20E66E6A
:100A40001CEC12F0146E050EE15C02E2E16AE55264
:100A5000E16E14508AD0B00EE66E250EE66E000EE2
:100A6000E66ED950020FE66E000EDA20E66E1CEC40
:100A700012F0146E050EE15C02E2E16AE552E16EED
:100A8000145073D0AE0EE66E250EE66E000EE66EC6
:100A9000D950020FE66E000EDA20E66E1CEC12F062
:100AA000146E050EE15C02E2E16AE552E16E14505B
:100AB0005CD0AC0EE66E250EE66E000EE66ED950EA
:100AC000020FE66E000EDA20E66E1CEC12F0146ED9
:100AD000050EE15C02E2E16AE552E16E145045D098
:100AE000AA0EE66E250EE66E000EE66ED950020FD7
:100AF000E66E000EDA20E66E1CEC12F0146E050EA7
:100B0000E15C02E2E16AE552E16E14502ED0A80EDB
:100B1000E66E250EE66E000EE66ED950020FE66E0A
:100B2000000EDA20E66E1CEC12F0146E050EE15C8D
:100B300002E2E16AE552E16E145017D0A60EE66EAD
:100B4000250EE66E000EE66ED950020FE66E000E20
:100B5000DA20E66E1CEC12F0146E050EE15C02E287
:100B6000E16AE552E16E145000D0160EE15C02E23B
:100B7000E16AE552E16EE552E5CFDAFFE7CFD9FF52
:100B8000120024EC00F0CC0EE66E55EC00F0E552BD
:100B90004E0EE66E55EC00F0E552E66A55EC00F0BC
:100BA000E552E66A55EC00F0E5525F0EE66E55EC54
:100BB00000F0E552120024EC00F0CC0EE66E55EC8D
:100BC00000F0E552440EE66E55EC00F0E552280EBA
:100BD000E66E94EC14F0E55224EC00F0CC0EE66ED8
:100BE00055EC00F0E552BE0EE66E55EC00F0E55215
:100BF00094EC00F001011A6F94EC00F001011B6FFE
:100C0000120001011A390F0B0101416F426B010102
:100C10001B39F00B0101436F446B0101010143518A
:100C2000010141110101456F01010101445101011F
:100C300042110101466F120001011AA118D00C6A7D
:100C40000D6A800E0E6E3D0E0F6E4BC107F04CC14B
:100C500008F04DC109F04EC10AF0C9EC0DF007C013
:100C60004BF108C04CF109C04DF10AC04EF1010131
:100C70001AA317D00C6A0D6A0E6A3E0E0F6E4BC196
:100C800007F04CC108F04DC109F04EC10AF0C9ECA3
:100C90000DF007C04BF108C04CF109C04DF10AC07E
:100CA0004EF101011AA518D00C6A0D6A800E0E6E65
:100CB0003E0E0F6E4BC107F04CC108F04DC109F05C
:100CC0004EC10AF0C9EC0DF007C04BF108C04CF161
:100CD00009C04DF10AC04EF101011AA717D00C6AE4
:100CE0000D6A0E6A3F0E0F6E4BC107F04CC108F043
:100CF0004DC109F04EC10AF0C9EC0DF007C04BF12F
:100D000008C04CF109C04DF10AC04EF10C6A0D6AE1
:100D10007A0E0E6E440E0F6E4BC107F04CC108F0F8
:100D20004DC109F04EC10AF0B2EC0EF072EC0FF0BA
:100D300008C047F109C048F11200F80E01011B1567
:100D40000101496F4A6B010149514A1121E1010139
:100D50004051E66EE66A47C1E6FF48C1E6FF45C17D
:100D6000E6FF46C1E6FF940EE66E250EE66E000E27
:100D7000E66E1C0EE66E010EE66E1CEC12F0146EB2
:100D80000B0EE15C02E2E16AE552E16E145020D004
:100D900001014051E66EE66A47C1E6FF48C1E6FF41
:100DA00045C1E6FF46C1E6FF820EE66E250EE66E01
:100DB000000EE66E1C0EE66E010EE66E1CEC12F0E6
:100DC000146E0B0EE15C02E2E16AE552E16E145032
:100DD000120001014B6B4C6B4D6B4E6B0101476B6D
:100DE000486B0101496B4A6B1200540EE66E91ECA0
:100DF00011F0E5528DEC10F0000901E0FBD71C0E5C
:100E0000E66E010EE66EE5EC10F0E552E5528DEC73
:100E100010F0000901E0FBD71200E9CFE4FFEACFB0
:100E2000E4FFF6CFE4FFF7CFE4FFF8CFE4FFF5CF20
:100E3000E4FFF3CFE4FFF4CFE4FFFACFE4FFFBCF0E
:100E4000E4FF00EE00F0140EE80403E3EECFE4FF4D
:100E5000FBD700EE14F00C0EE80403E3EECFE4FF42
:100E6000FBD7E652F29EF0A20AD0F09832DC0101E4
:100E7000042B000E052337EC01F0F092F088F2A469
:100E800004D0F294F29AD5EC01F0F2A204D081DC05
:100E9000F298F292F288F28E00D0E55200EE1FF046
:100EA0000C0EE80403E3E5CFEDFFFBD700EE13F0F3
:100EB000140EE80403E3E5CFEDFFFBD7E5CFFBFF1E
:100EC000E5CFFAFFE5CFF4FFE5CFF3FFE5CFF5FF80
:100ED000E5CFF8FFE5CFF7FFE5CFF6FFE5CFEAFF77
:100EE000E5CFE9FF11000001E06BE16B0001E46B6D
:100EF000E56B0001E26BE36B0101046B056B010123
:100F0000066B076B0101086B096B0101106B116B1C
:100F10000101126B136B0101146B156B166B176BD0
:100F20000101186B196BFAEC00F0948E948C948A82
:100F30009488D08EF28EF288F19CF28AF294F18439
:040F4000FFD71200C5
:0C0F4400DEEC0CF0FB0EDBCFF3FFDB0655
:100F5000F35000090AE02CEC0DF0FA0E97EC0DF0BE
:100F6000F3E1151CF1E1010E01D0000E0DEF0DF0C3
:100F7000DEEC0CF03B0EE12402E3E168E652E16EA8
:100F8000010EDB6A020EDB6AF90EDBCFF6FFFA0E0A
:100F9000DBCFF7FFFB0EDBCFF8FF0800F550DF6E6D
:100FA000DF5002E131EF0CF0250EDF5C02E024EFB0
:100FB0000CF0030EDB6A040EDB6A050EDB6A060E1C
:100FC000DB6A070EDB6A46EC0CF02D0EDF5C0CE0F2
:100FD0002B0EDF5C09E0200EDF5C06E0230EDF5CF9
:100FE00003E0300EDF5C1AE1DF50300A14E0130A30
:100FF0000FE0030A0AE00B0A05E0060AE4E1030E2B
:10100000DB80E1D7030EDB82DED7030EDB84DBD788
:10101000030EDB86D8D7030EDB88D5D72A0EDF5C1C
:101020001BE142EC0CF090EC0CF010E0030EDB80C6
:1010300008680968130EDBCF0DF0140EDBCF0EF03D
:1010400045EC0FF0040E06C0DBFF03D0130E79EC65
:101050000CF046EC0CF00BD0090EDB6AE7EC0CF060
:1010600003E05BEC0DF0FAD7090E79EC0CF0030EFF
:10107000DBB0DB982E0EDF5C1BE146EC0CF02A0E99
:10108000DF5C0BE142EC0CF090EC0CF003E1130E92
:10109000CBEC0CF046EC0CF00BD0090EDB6AE7EC65
:1010A0000CF003E05BEC0DF0FAD7090ECBEC0CF082
:1010B000680EDF5C07E146EC0CF0680EDF5C1DE1BA
:1010C000030E18D0740EDF5C17E07A0EDF5C14E0BC
:1010D000480EDF5C06E0540EDF5C03E05A0EDF5C76
:1010E00002E1020E07D06C0EDF5C03E06A0EDF5CEB
:1010F00004E1010E1EEC0DF0C9DBDF506E0A01E1C8
:101100007FD31E0A01E192D1200A01E18FD13F0A6B
:1011100001E149D11A0A01E146D10D0A01E143D1A9
:10112000200A01E140D13A0A01E13DD1200A01E162
:101130003AD1260A01E135D10D0A01E132D11A0A6C
:1011400001E1D9D0200A4AE0300A1FE0460A0EE049
:10115000250A01E083D3D950F90FE96EFF0EDA209A
:10116000EA6E010EEE5E000EEE5AEE5A2CEC0DF019
:10117000250EE66E95DB03E1151C01E169D328EC31
:101180000DF001E26BD3DB2A69D3080EDB6A040E93
:10119000DB50010806E2040EDB04F0EC0CF0DB503F
:1011A0008BDB080EDB5009E0030EDB50010B05E181
:1011B00072DB01E04DD3080EDB6A64DBEFCFDFFFAB
:1011C000A0EC0DF003E1151C01E142D328EC0DF079
:1011D00001E3DB2A60DB01E141D33AD3070EDB50A8
:1011E00002080FE16CEC0DF0030E33EC0DF00E0E67
:1011F000EECFDBFF0F0EEECFDBFF100EEECFDBFFEF
:1012000020D0F70EDBCF17F0F80EDBCF18F0020E70
:10121000175E000E185AF70E17C0DBFFF80E18C045
:10122000DBFF17C0E9FF18C0EAFF23EC0DF0166AD8
:101230000E0E14C0DBFF0F0E15C0DBFF100E16C024
:10124000DBFF0E0EDBCFE6FF0F0EDBCFE6FF100E4F
:10125000DBCFE6FF92EC13F0E552E552E552130EB8
:1012600007C0DBFF140E08C0DBFF060EDB5005E0F5
:10127000130E67EC0DF001E26ADB8BEC0DF002E27D
:10128000130E37DB4EEC0DF006E0040E67EC0DF0AC
:1012900002E2050E2EDB030EDBB005D0FCDA01E026
:1012A000D7D2080EDB6A090EDB6A0E0EDBCFF6FF23
:1012B0000F0EDBCFF7FF100EDBCFF8FF0800F55065
:1012C000DF6EDF5014E091EC0DF011E2A0EC0DF0B8
:1012D00003E1151C01E1BCD2BBDB01E3DB2A090EF3
:1012E000DB2AD9500E0FE96E000ECBDBE7D7D3DA3D
:1012F00001E1B4D2ADD2C6DA110EEECFDBFF120E91
:10130000EDCFDBFF110EDBCFE6FF120EDBCFE6FFEA
:1013100084EC13F0E552E552130EF3CFDBFF140E0D
:10132000F4CFDBFF060EDB5004E0130ED0DB01E24E
:101330000EDB8BEC0DF002E2130EDBDAAFDB05E027
:10134000040EC5DB02E2050ED4DA030EDBB005D0D5
:10135000A2DA01E07DD2080EDB6A090EDB6A110E0B
:10136000DBCFE9FF120EDBCFEAFFEFCFDFFFDF506D
:1013700014E0D7DB12E2E4DB03E1151C01E168D2E3
:1013800067DB01E3DB2A090EDB2A110EDB2ADBCF48
:10139000E9FF120EE8E3DB2AE6D77DDA01E15ED24F
:1013A00057D2030EDB8E070EDB0410E195DB040E33
:1013B0005ADB0A0EEECFDBFF0B0EEECFDBFF0C0E7F
:1013C000EECFDBFF0D0EEECFDBFF6CD0070EDB5058
:1013D00003082CE1030EDBAE0DD0B2DA020E76DA92
:1013E000EFCF14F0156A166A176A14AE39D0156873
:1013F000166835D0F70EDBCF15F0F80EDBCF16F000
:10140000020E155E000E165AF70E15C0DBFFF80E21
:1014100016C0DBFF15C0E9FF16C0EAFFEFCF14F0DE
:101420000A0E14C0DBFF0B0EDB6A38D0070EDB5050
:10143000020809E1030EDBAE04D059DB16AE10D072
:101440000ED055DB0DD0030EDBAE12D079DA020ED2
:101450003DDAF9DA166A176A15AE02D0166817680F
:10146000E2DA0C0E16C0DBFF0D0E17C0DBFF1AD040
:10147000F70EDBCF16F0F80EDBCF17F0020E165E7C
:10148000000E175AF70E16C0DBFFF80E17C0DBFF71
:1014900016C0E9FF17C0EAFFD6DAC5DA0C0EDB6A20
:1014A0000D0EDB6A060EDB5005E1010EF36E050E34
:1014B000F3CFDBFF150EDB6A160EDB6AD950370F50
:1014C000146E000EDA20156E390E14C0DBFF3A0ED2
:1014D00015C0DBFF380EDB6A080EDB6A0A0EAEDAD7
:1014E000DF50780A12E0200A10E0280A0CE0200AF7
:1014F0000AE03F0A06E00D0A02E0200A08E1020EB7
:1015000005D0080E03D0080EDF26100E97DA030E62
:10151000DBBE02D0DB92DB94DB50800B24E08ADA66
:10152000D890030EEB50000A08E6000EEE5C000EA9
:10153000EE58000EEE58000EEE5815E213DA0B6866
:101540000C680D680E684CEC13F00A0E02C0DBFF4D
:101550000B0E03C0DBFF0C0E04C0DBFF0D0E05C03D
:10156000DBFF2D0E08D0030EDBA202D02B0E03D022
:10157000DBA408D0200EF36E170EF3CFDBFF150EA1
:10158000DB2A02D0170EDB6A050EDB5003E1B7D968
:1015900001E189D0340E146E2A0E156E000E166EFF
:1015A000070EDBCF17F0186A196A1A6A17C00BF01A
:1015B00018C00CF019C00DF01AC00EF0D3D9E6EC2B
:1015C00013F014500224F36E15500320F46E1650DD
:1015D0000420F86EF4CFF7FFF3CFF6FF0800090EF2
:1015E000F5CFDBFF580EDF5C0FE1610EF36E090EE5
:1015F0007BD90AE3200E146E090EDBCFE7FF1450EF
:10160000E75E090EE7CFDBFF070EDBCF14F0156AAC
:10161000166A176A0FDA14C00BF015C00CF016C06A
:101620000DF017C00EF0EECF06F0EECF07F0EECFC4
:1016300008F0EFCF09F0E6EC13F009C0EDFF08C0A9
:10164000EDFF07C0EDFF06C0EFFF390EDBCFE9FF6E
:10165000DB063A0EDBCFEAFF01E2DB06090EDBCF49
:10166000EFFF150EDB2A4BD995E1030EDBA61DD04B
:101670006F0EDF5C06E1C1D918E3150EDB285BDADB
:1016800014D0780EDF5C09E0580EDF5C06E0620ED5
:10169000DF5C03E0420EDF5C08E1020EF36E160E23
:1016A000F3CFDBFF02D0150EDB6A030EDB50100B0D
:1016B0000EE0040EDBCF14F0050EDB50D88014547E
:1016C00006E2060EDB5003E1040EDB5034DA95D956
:1016D0000AE2050EDBCFE7FF150EDB50E75E050ED5
:1016E000E7CFDBFF02D0050EDB6A040EDBCF14F080
:1016F000160E45D9D880145414E2160EDBCFE6FF3F
:10170000150EDBCFE6FF040EDBCFE6FF050EDB5048
:10171000E552E75CE552D880E754E552D880E754BB
:101720005FD9030EDB50010B0BE1080EDB5008E024
:10173000B2D801E08DD0080EDB50BED8080EDB6AAF
:10174000170EDB5007E088D9170EF1D903E1151CFD
:1017500001E17ED0160EDB5016E07ED9300EE66E2B
:101760009FD802E1151C74E077D9DFCFE6FF0AECC1
:1017700013F0E552E552E552F4CF15F00001F31CE9
:1017800002E1151C65E0050EDBCF14F0160EDB50F0
:10179000D880145409E2050EDBCFE7FF160EDB50AC
:1017A000E75E050EE7CFDBFF300EE66E050ECBD908
:1017B0004FE1390EDB2ADBCFE9FF3A0E01E3DB2AEA
:1017C000DBCFEAFF090EEFCFDBFFDB500EE044D9A1
:1017D000090EADD902E1151C3BE0390EDB2ADBCF47
:1017E000E9FF3A0EEDE3DB2AEBD755D831E1160ECF
:1017F000DBCFE6FF080EC3D8E552E7245DD82ED034
:10180000070EDB50030A1CE0010A14E0030A07E09C
:101810007BD9DBCFEEFF020EDBCFEDFF1FD0F5D87B
:10182000196A17AE02D0186819682CD8BCD819C02C
:10183000EEFF14D0EAD817BE186824D8B4D80ED05A
:1018400063D9DBCFEFFF0AD07BD905E1151C03E19B
:10185000F368F46810D0FCD801E3DB2A79D9CDEF26
:1018600007F0010EDBCF14F0020EDBCF15F014C031
:10187000F3FF15C0F4FF3B0EE15C02E2E16AE552C2
:10188000E16ECBD029D9020E33EF0DF061D90800FB
:10189000F550DF6E1200200EE66E080EA3EF0DF07D
:1018A0000AEC13F0E552E552E552F3CF14F0F4CF11
:1018B00015F00001F31C1200146E156AD950010FC7
:1018C0004DD91450EE261550ED221200185E000E70
:1018D000195AF70E18C0DBFFF80E19C0DBFF18C04D
:1018E000E9FF19C0EAFF1200DBCFF4FFF350F45C0C
:1018F0001200DB50E76E040EE7CFDBFF12000A0E8A
:10190000DBCF14F00B0EDBCF15F00C0EDBCF16F097
:101910000D0EDBCF17F01450151016101710120013
:10192000130EEECFDBFF140EEDCFDBFF130EDBCF7C
:1019300014F0140EDBCF15F00001800E1514120008
:10194000F70EDBCF18F0F80EDBCF19F01200050E02
:10195000DB50E66ED950130F01D9E552E750EE6E19
:10196000ED6A12000A0EDBCF06F00B0EDBCF07F09C
:101970000C0EDBCF08F00D0EDBCF09F01200DBCF31
:10198000E6FF150EDBCFE6FF050EDB50E552E72440
:10199000E552E7241200DB50CED8010EF36E060E9E
:1019A000F3CFDBFF1200EE50EFCFEAFFE96E16C077
:1019B000EEFF17C0EEFF18C0EEFF1200D9CFE6FF12
:1019C000DACFE6FFE1CFD9FFE2CFDAFF1200DFCFB7
:1019D000E6FFE66AC1EC14F0E552E552F35012005E
:1019E000E76E080EE7CFDBFF1200EECF14F0EECF6C
:1019F00015F0EFCF16F0176A1200050EDBCF14F0CA
:101A0000150EDB50D88014541200010EDBCF16F0F7
:101A1000020EDBCF17F0186A1200E552E5CFDAFFAD
:101A2000E7CFD9FF12000A0E14C0DBFF0B0E15C062
:101A3000DBFF1200D9500A0FAEEF0DF0F36E070E68
:101A4000F3CFDBFF1200EECF14F0EFCF15F0120052
:101A5000010EDB2A020E1200FC0EDBCFE6FFFD0EAC
:101A6000DBCFE6FF1200145E000E155AF70E14C00D
:101A7000DBFFF80E15C0DBFF14C0E9FF15C0EAFF5D
:101A80001200DA20EA6EEF2AEECFF6FF000EEF2208
:101A9000EECFF7FFEF22EECFF8FF1200040EDBCF00
:101AA000E6FF130EDB50E552E75C9ADFDB5004DF04
:101AB000060EDB501200090EDB500A0DF350DF2436
:101AC000D00FE76E090EE7CFDBFF46EF0CF0DB50DF
:101AD000F36E050E74EF0CF0F70EDBCF14F0F80E7A
:101AE000DBCF15F01200DFCFE6FF50EF0CF028DF60
:101AF000030EECDEF5EF0CF0A2EC07F0E552E55238
:101B0000E552E55200091200BDDEEE50EFCFEAFFCC
:101B1000E96E010E1200130EDB50F36E040E74EF2B
:101B20000CF0040EDB50F36E090E74EF0CF0DBCFFB
:101B3000E6FF50EF0CF0E76E050EE7CFDBFF12007B
:101B40008BDF73EF0DF0DBCFE6FF86DF7CEF0DF070
:101B5000D950F90FE96EFF0E41EF0DF0E96E000E5E
:061B6000DA20EA6E12001B
:0A1B6600019E08D0019E09AE05D0D3
:101B7000086C091EE86A0922018E09C003F008C03A
:101B800002F0136A126A8E0E046E056ABDEF0FF042
:101B90000F7E016AF9EC0FF011EC10F001B6A1EF25
:101BA0000FF001A20AD001AA03D001BEA1EF0FF0ED
:101BB00001A4ADEF0FF0AAEF0FF001AA05D001AC20
:101BC000ADEF0FF0AAEF0FF001A00AD001A808D0E6
:101BD00001BE04D001A402D0B6EF0FF0BAEF0FF0AF
:101BE000126A056A0F500A5C116E10E307C013F009
:101BF00008C002F009C003F00AC010F00CC007F0E2
:101C00000DC008F00EC009F0013A09D00CC013F065
:101C10000DC002F00EC003F00FC010F0116C019E59
:101C200001BC018E10C004F001B0E9EF0FF01A0EF4
:101C30001160E9EF0FF0046A0A6A01A408D0076C8A
:101C4000081E091E0A1EE86A082209220A2201AC9F
:101C500008D0136C021E031E041EE86A022203222F
:101C60000422066A115207E00A34093208320732A8
:101C70000632112EF9D707501326085002220950B8
:101C800003220A50042206C012F0019E04AE0BD0BB
:101C9000126C131E021E031E041EE86A1322022287
:101CA00003220422018E04A006D0D880033202321F
:101CB00013321232102A10C004F0BDEF0FF0016A87
:101CC000F9EC0FF011EC10F001B6A1EF0FF001A24A
:101CD00005D001BAA1EF0FF0A8EF0FF001BAB4EFF1
:101CE0000FF001A005D001B8A1EF0FF0B4EF0FF095
:101CF00001B8A8EF0FF0056A7F0E0A24046EE86AA7
:101D000005220F50045EE86A055A1A0E106E0A6A20
:101D1000126A136A026A036A0C50075E0D50085A71
:101D20000E50095A000E0A5A09E70C5007260D50AA
:101D300008220E500922000E0A2201D0128AD890E1
:101D40000736083609360A36D89012361336023668
:101D50000336102EE1D7095008100710D8A4128AB4
:101D6000BDEF0FF0016AF9EC0FF011EC10F001B6C5
:101D7000A1EF0FF001A205D001B8A1EF0FF0A8EF7D
:101D80000FF001AA05D001B0A1EF0FF0A8EF0FF0FE
:101D900001B002D001A802D0B4EF0FF0056A0F50D5
:101DA0000A24046EE86A05227E0E045EE86A055A7B
:101DB000126A136A026A036A0E500902F4CF03F032
:101DC000F3CF02F00D500902F3501326F450022213
:101DD000000E03220E500802F3501326F450022284
:101DE000000E03220C500902F3501226F450132265
:101DF000000E022203220D500802F3501226F45066
:101E00001322000E022203220E500702F350122664
:101E1000F4501322000E022203220C500802F45048
:101E20001226000E1322022203220D500702F45044
:101E30001226000E132202220322BDEF0FF0006AC9
:101E40000EAE28EF0FF00D6C0E1EE86A0E22001E7B
:101E500009AE30EF0FF0086C091EE86A0922001E77
:101E6000ABEC14F009BE40EF0FF000AE000C086CB4
:101E7000091EE86A0922046C051EE86A0522000CA6
:101E800000BE37EF0FF00188FF0C09C013F008C047
:101E900012F008500D02F4CF07F0F3CF06F009500E
:101EA0000E02F4CF09F0F3CF08F00D02F35007262D
:101EB000F4500822E86A092212500E02F350072655
:101EC000F4500822E86A09220EAE6BEF0FF01250B0
:101ED000085E1350095A13AE000C0D50085E0E50E8
:101EE000095A000C016AF9EC0FF001B67CEF0FF013
:101EF00001A20ED001B405D07F0E096EFF0E086E50
:101F00001FD0800E096E086A1BD0096A086A18D0B3
:101F100001B0FBD78F0E0A60EDD77E0E0A64F5D7AD
:101F20008E0E0A5C05E0D890093208320A2AF8D7EA
:101F300001A406D0086C091EE86A092209AEE5D79B
:101F400012007F0E0A6EFF0E096E086E076E1200F9
:101F50007F0E01BEFF0E0A6E02D07F0E0A6E800E4B
:101F6000096E086A076AF3D701AE04D0800E0A6EC4
:101F7000096AF7D70A6A096AF4D7035002101310E6
:101F80001210F8E005BEF0D703BE0CD004500510C7
:101F9000EBE0D89012361336023603360406D8A08A
:101FA0000506F2D70550D4E10428D2E012AE11D0D4
:101FB0007F0E121402E113A00CD0132AE86A022249
:101FC000032207E3D880033202321332042A0428A2
:101FD000BFE00450C9E013C007F002C008F00334AA
:101FE000096E04300A6E09320A9E01BE0A8EA7EFFE
:101FF0000FF009360A3602E30184017E06E1018012
:102000000A6A096A086A076A12000A2803E0D88087
:1020100009321200D890093202E1018212000186D1
:1020200012000E360F3602E3018C017E06E10188B4
:102030000F6A0E6A0D6A0C6A12000F2803E0D8803E
:0E2040000E321200D8900E32EAE1018A120030
:02204E00D9CFE8
:10205000E6FFDACFE6FFE1CFD9FFE2CFDAFF0F0EDE
:1020600083160F0E95169594959295908C948C925C
:102070008C90F3EC00F0300EE66E82D9E552050E3E
:10208000E66E94EC14F0E552300EE66E79D9E55226
:10209000010EE66E94EC14F0E552320EE66E70D945
:1020A000E5523BD8000901E0FCD737D8000901E030
:1020B000FCD7FD0EDBCFE6FF63D9E5522ED8000931
:1020C00001E0FCD7080EE66E5BD9E55226D8000980
:1020D00001E0FCD70F0EE66E53D9E5521ED8000979
:1020E00001E0FCD7010EE66E4BD9E55216D8000987
:1020F00001E0FCD7040EE66E43D9E5520ED8000984
:1021000001E0FCD7800EE66E0CD9E55200D0E55216
:10211000E5CFDAFFE7CFD9FF12008C848C92DCEC9C
:1021200000F08C80DCEC00F083AE0BD08C90DCEC0B
:1021300000F08C80DCEC00F08C908C94010E0BD0C5
:102140000AD08C90DCEC00F08C80DCEC00F08C9001
:102150008C94000E00D01200D9CFE6FFDACFE6FF54
:10216000E1CFD9FFE2CFDAFFFB0EDBCFF6FFFC0EAB
:10217000DBCFF7FFFD0EDBCFF8FF0800F5501EE0C8
:10218000CCDF000901E0FCD7FB0EDBCFF6FFFC0E35
:10219000DBCFF7FFFD0EDBCFF8FF0800F550E66E52
:1021A0001DD9E552D950FB0FE96EFF0EDA20EA6E19
:1021B000EE2A000EEE22000EEE22D6D700D0E55217
:1021C000E5CFDAFFE7CFD9FF1200D9CFE6FFDACFAC
:1021D000E6FFE1CFD9FFE2CFDAFFFC0EDBCFE9FF6C
:1021E000FD0EDBCFEAFFEF5014E097DF000901E0BE
:1021F000FCD7FC0EDBCFE9FFFD0EDBCFEAFFEF5093
:10220000E66EECD8E552FC0EDB2AFD0E01E3DB2A7C
:10221000E4D700D0E552E5CFDAFFE7CFD9FF1200CF
:10222000D9CFE6FFDACFE6FFE1CFD9FFE2CFDAFF81
:10223000E6528C848C92DCEC00F08C80DCEC00F0BC
:10224000F00E8314DF6E8C90DCEC00F08C80DCEC04
:1022500000F083380F0B0F0BDF128C908C947F0EE5
:10226000DF1400D0E552E552E5CFDAFFE7CFD9FF22
:102270001200D9CFE6FFDACFE6FFE1CFD9FFE2CFF8
:10228000DAFFE6528C848C82DCEC00F08C80DCEC93
:1022900000F0F00E8314DF6E8C90DCEC00F08C808C
:1022A000DCEC00F083380F0B0F0BDF128C908C925C
:1022B0008C94DF5000D0E552E552E5CFDAFFE7CF4E
:1022C000D9FF1200D9CFE6FFDACFE6FFE1CFD9FF81
:1022D000E2CFDAFF0F0E95160F0E8316FD0EDB50C0
:1022E0004009F00B83128C948C92DCEC00F08C8013
:1022F000DCEC00F08C900F0E8316FD0EDB38F00B3B
:10230000F00B8312DCEC00F08C80DCEC00F08C90A5
:10231000F00E951200D0E552E5CFDAFFE7CFD9FFF6
:102320001200D9CFE6FFDACFE6FFE1CFD9FFE2CF47
:10233000DAFF0F0E95160F0E8316FD0EDB50800987
:10234000F00B83128C948C92DCEC00F08C80DCEC33
:1023500000F08C900F0E8316FD0EDB38F00BF00BA7
:102360008312DCEC00F08C80DCEC00F08C90F00E42
:10237000951200D0E552E5CFDAFFE7CFD9FF120082
:10238000D9CFE6FFDACFE6FFE1CFD9FFE2CFDAFF20
:102390000F0E95160F0E8316FD0EDB50F00B8312F9
:1023A0008C948C92DCEC00F08C80DCEC00F08C9057
:1023B0000F0E8316FD0EDB38F00BF00B8312DCECF6
:1023C00000F08C80DCEC00F08C90F00E951200D0C8
:1023D000E552E5CFDAFFE7CFD9FF1200D9CFE6FF0C
:1023E000DACFE6FFE1CFD9FFE2CFDAFF0F0E951685
:1023F0000F0E8316FD0EDB50F00B83128C828C9433
:10240000DCEC00F08C80DCEC00F08C900F0E83167E
:10241000FD0EDB38F00BF00B8312DCEC00F08C804F
:10242000DCEC00F08C90F00E951200D0E552E5CF78
:08243000DAFFE7CFD9FF12002B
:08243800D9CFE6FFDACFE6FF81
:10244000E1CFD9FFE2CFDAFFE652E652E652E6529A
:10245000D950F90F146EFF0EDA20156E020E14C05B
:10246000DBFF030E15C0DBFF020EDBCFE6FF030E22
:10247000DBCFE6FFF90EDBCFE6FFFA0EDBCFE6FFA0
:10248000FB0EDBCFE6FFD950FC0FE66EFF0EDA2025
:10249000E66EB8EC07F0146E070EE15C02E2E16A4A
:1024A000E552E16E1450F3CFDEFFF4CFDDFFFC0EFA
:1024B000DBCFE9FFFD0EDBCFEAFFEF6ADECF14F0E2
:1024C000DDCF15F014C0F3FF15C0F4FF040EE15C7E
:1024D00002E2E16AE552E16EE552E5CFDAFFE7CFCD
:0424E000D9FF12000E
:0C24E4003A0EF66E000EF76E000EF86E59
:1024F00001010900F550546F0900F550556F03E1D3
:10250000546701D03DD00900F5504F6F0900F550D8
:10251000506F0900F550516F09000900F550E96E40
:102520000900F550EA6E090009000900F550526FE4
:102530000900F550536F09000900F6CF56F1F7CFA7
:1025400057F1F8CF58F14FC1F6FF50C1F7FF51C115
:10255000F8FF0101525302E1535307E00900F5501F
:10256000EE6E5207F8E25307F9D756C1F6FF57C18E
:10257000F7FF58C1F8FF01015407000E555BBFD7A4
:02258000120047
:0E25820054656D703A202D25642E253033648B
:102590002563430054656D703A202B25642E253049
:1025A000336425634300440043004200410045007A
:1025B0003900360033004600380035003200300064
:1025C0003700340031004865617274626561743AA5
:1025D0002025642042504D004176672048523A2021
:1025E00025642042504D00486561727472617465C3
:1025F0003A25642042504D004852563A2564202521
:1026000000485220696E74657276616C3A202564C8
:04261000206D7300C6
:0C261400D9CFE6FFDACFE6FFE1CFD9FF17
:10262000E2CFDAFFFB0EDBCF14F0FC0EDBCF15F0B0
:102630000001800E15141AE1FB0EDBCFE9FFFC0E42
:10264000DBCFEAFFEECFF3FFEDCFF4FFEE2A000E73
:10265000EF22F3CFE9FFF4CFEAFFFD0EDBCFEFFF70
:10266000EF50156AF36E15C0F4FF10D0FB0EDB506F
:10267000FE0806E1FD0EDBCFE6FF01EC15F005D00C
:10268000FD0EDBCFE6FF2BEC15F0E552E552E5CF72
:08269000DAFFE7CFD9FF1200C9
:0826980006500B02F3CF02F023
:1026A000F4CF03F00C02F3500326000EF420046E66
:1026B00006500D02F3500426000EF420056E06505D
:1026C0000E02F350052607500B02F3500326F45078
:1026D0000422000E052207500C02F3500426F45089
:1026E000052207500D02F350052608500B02F35047
:1026F0000426F450052208500C02F3500526095018
:082700000B02F3500526120044
:08270800FE0EE3CFE9FFFF0E16
:10271000E3CFEAFFF36AF46AEE5203E0F34AF42AE5
:10272000FBD71200FF0EE3CFF8FFE552FF0EE3CF19
:10273000F7FFE552FF0EE3CFF6FFE552E66AE66AE1
:10274000E66A0900F55209E0FD0EE32A05E1FE0EF6
:10275000E32A02E1FF0EE32AF4D7FD0EE3CF07F0F0
:0E276000FE0EE3CF08F0FF0EE3CF09F01200EB
:02276E00D9CFC1
:10277000E6FFDACFE6FFE1CFD9FFE2CFDAFFE6529C
:10278000E652FC0EDBCF14F0FD0EDBCF15F0060E8B
:10279000D89014361536E804FBE114C0DEFF15C0EE
:1027A000DDFF010EDB50BE6EDF50E840E8403F0B1E
:1027B000300B146ECF0EBD141410BD6EE552E552F1
:0C27C000E552E5CFDAFFE7CFD9FF1200A9
:0427CC00056A046A2C
:1027D000036A026A200EE76ED8900636073608367E
:1027E000093602360336043605360B50025C0C50AF
:1027F00003580D5004580E50055809E30B50025E63
:102800000C50035A0D50045A0E50055A062AE72E52
:04281000E4D71200F7
:0C281400D9CFE6FFDACFE6FFE1CFD9FF15
:10282000E2CFDAFFE652E652D650DF6E010ED7CF86
:10283000DBFFDECF14F0DDCF15F014C0F3FF15C0C1
:10284000F4FFE552E552E552E5CFDAFFE7CFD9FFD5
:02285000120074
:0E285200D9CFE6FFDACFE6FFE1CFD9FFE2CF24
:10286000DAFFE652E652FC0EDBCFDEFFDBCFDDFF08
:10287000010EDB50D76EDF50D66EE552E552E552C1
:0A288000E5CFDAFFE7CFD9FF120021
:06288A00D9CFE6FFDACF12
:10289000E6FFE1CFD9FFE2CFDAFFFD0EDB507F0B81
:1028A000D56ED76AD66AF294FD0EDBAE02D0F28AFC
:1028B00001D0F29AD58EE552E5CFDAFFE7CFD9FF06
:0228C000120004
:0E28C200D9CFE6FFDACFE6FFE1CFD9FFE2CFB4
:1028D000DAFFFD0EDB50FB0BCA6ECC6A9E92FD0E3A
:1028E000DBAE02D09D8201D09D92CA84E552E5CF35
:0828F000DAFFE7CFD9FF120067
:0828F800D9CFE6FFDACFE6FFBD
:10290000E1CFD9FFE2CFDAFF0C0EBD129494CA9446
:10291000FD0EDB50CB6ECA84E552E5CFDAFFE7CF80
:08292000D9FF1200949412008B
:08292800FF0EE350216EEF0EDB
:1029300001D0F30EE76EE72E9BEF14F00C0E206E25
:10294000E76AE72EA1EF14F0202EA0EF14F0212E5D
:0629500099EF14F01200E3
:0A295600056A046A100EE76ED890BF
:1029600008360936043605360D50045C0E500558FD
:1029700005E30D50045E0E50055A082AE72EF0D7E5
:02298000120043
:0E298200F36AF46AFF0EE124E96EFF0EE22014
:10299000EA6EED6607D02F0EEF6404D03A0EEF60BA
:0629A00001D0F32A120031
:0A29A600FF0EE350216E480E01D031
:1029B0004C0EE76EE72EFED7E76AE72EFED7212EF4
:0629C000F7D70000120031
:0A29C600000EF36E00EE00F0060EA6
:1029D00001D81200EA6002D0EE6AFCD7F350E96039
:0629E0001200EE6AFCD7B4
:0A29E60010EE80F020EE80F0F86A99
:1029F000019C72EC12F02CEC15F073EC07F0FBD795
:022A00001200C2
:0E2A0200FF0EE350ACBA04D0AF6AAB8EAC8AC4
:0E2A1000949CACA2FED7AD6EF36EF46A120079
:022A1E00FF0EA9
:102A2000E350E84E1200000000D000D000D0E82EA5
:042A3000FAD71200BF
:0C2A3400303132333435363738396162C6
:052A40006364656600FF
:062A4600CD909D901200EE
:042A4C00D59EF29A87
:022A5000120072
:042A5200BD6A120047
:022A560012006C
:022A580012006A
:062A5A0000000000000076
:102A600000000000000000000000DF000000000087
:092A70000000000000000000005D
:020000040030CA
:010003000EEE
:010006008178
:00000001FF
