:020000040000FA
:0600000003EF0FF01200F7
:060008007CEF0AF012007B
:06003A000100781E000029
:08004000E00000001C000000BC
:0800480060EC05F0FB0EDBCFBC
:10005000F3FFDB06F35000090AE0AEEC05F0FA0E00
:1000600019EC06F0F3E1151CF1E1010E01D0000ED0
:100070008FEF05F060EC05F03B0EE12402E3E16850
:10008000E652E16E010EDB6A020EDB6AF90EDBCF8F
:10009000F6FFFA0EDBCFF7FFFB0EDBCFF8FF080011
:1000A000F550DF6EDF5002E1B3EF04F0250EDF5CA8
:1000B00002E0A6EF04F0030EDB6A040EDB6A050E15
:1000C000DB6A060EDB6A070EDB6AC8EC04F02D0E55
:1000D000DF5C0CE02B0EDF5C09E0200EDF5C06E04D
:1000E000230EDF5C03E0300EDF5C1AE1DF50300AE4
:1000F00014E0130A0FE0030A0AE00B0A05E0060AFF
:10010000E4E1030EDB80E1D7030EDB82DED7030ED2
:10011000DB84DBD7030EDB86D8D7030EDB88D5D78D
:100120002A0EDF5C1BE1C4EC04F012EC05F010E0D9
:10013000030EDB8008680968130EDBCF0DF0140E88
:10014000DBCF0EF066EC08F0040E06C0DBFF03D038
:10015000130EFBEC04F0C8EC04F00BD0090EDB6AC4
:1001600069EC05F003E0DDEC05F0FAD7090EFBECD5
:1001700004F0030EDBB0DB982E0EDF5C1BE1C8EC55
:1001800004F02A0EDF5C0BE1C4EC04F012EC05F085
:1001900003E1130E4DEC05F0C8EC04F00BD0090E92
:1001A000DB6A69EC05F003E0DDEC05F0FAD7090E37
:1001B0004DEC05F0680EDF5C07E1C8EC04F0680E5A
:1001C000DF5C1DE1030E18D0740EDF5C17E07A0EC1
:1001D000DF5C14E0480EDF5C06E0540EDF5C03E0F9
:1001E0005A0EDF5C02E1020E07D06C0EDF5C03E00A
:1001F0006A0EDF5C04E1010EA0EC05F0C9DBDF5004
:100200006E0A01E17FD31E0A01E192D1200A01E1C9
:100210008FD13F0A01E149D11A0A01E146D10D0A05
:1002200001E143D1200A01E140D13A0A01E13DD187
:10023000200A01E13AD1260A01E135D10D0A01E196
:1002400032D11A0A01E1D9D0200A4AE0300A1FE06F
:10025000460A0EE0250A01E083D3D950F90FE96E72
:10026000FF0EDA20EA6E010EEE5E000EEE5AEE5A36
:10027000AEEC05F0250EE66E95DB03E1151C01E101
:1002800069D3AAEC05F001E26BD3DB2A69D3080E2F
:10029000DB6A040EDB50010806E2040EDB0472EC9C
:1002A00005F0DB508BDB080EDB5009E0030EDB5062
:1002B000010B05E172DB01E04DD3080EDB6A64DB64
:1002C000EFCFDFFF22EC06F003E1151C01E142D382
:1002D000AAEC05F001E3DB2A60DB01E141D33AD36C
:1002E000070EDB5002080FE1EEEC05F0030EB5EC53
:1002F00005F00E0EEECFDBFF0F0EEECFDBFF100E84
:10030000EECFDBFF20D0F70EDBCF17F0F80EDBCF00
:1003100018F0020E175E000E185AF70E17C0DBFF1A
:10032000F80E18C0DBFF17C0E9FF18C0EAFFA5EC04
:1003300005F0166A0E0E14C0DBFF0F0E15C0DBFFB2
:10034000100E16C0DBFF0E0EDBCFE6FF0F0EDBCF6D
:10035000E6FF100EDBCFE6FFFEEC0DF0E552E552B6
:10036000E552130E07C0DBFF140E08C0DBFF060EBC
:10037000DB5005E0130EE9EC05F001E26ADB0DEC61
:1003800006F002E2130E37DBD0EC05F006E0040EB7
:10039000E9EC05F002E2050E2EDB030EDBB005D022
:1003A000FCDA01E0D7D2080EDB6A090EDB6A0E0E1A
:1003B000DBCFF6FF0F0EDBCFF7FF100EDBCFF8FF22
:1003C0000800F550DF6EDF5014E013EC06F011E288
:1003D00022EC06F003E1151C01E1BCD2BBDB01E31A
:1003E000DB2A090EDB2AD9500E0FE96E000ECBDB9B
:1003F000E7D7D3DA01E1B4D2ADD2C6DA110EEECF2F
:10040000DBFF120EEDCFDBFF110EDBCFE6FF120E8E
:10041000DBCFE6FFF0EC0DF0E552E552130EF3CF23
:10042000DBFF140EF4CFDBFF060EDB5004E0130EEF
:10043000D0DB01E20EDB0DEC06F002E2130EDBDA9C
:10044000AFDB05E0040EC5DB02E2050ED4DA030ED5
:10045000DBB005D0A2DA01E07DD2080EDB6A090E1E
:10046000DB6A110EDBCFE9FF120EDBCFEAFFEFCF25
:10047000DFFFDF5014E0D7DB12E2E4DB03E1151C01
:1004800001E168D267DB01E3DB2A090EDB2A110EEA
:10049000DB2ADBCFE9FF120EE8E3DB2AE6D77DDAC1
:1004A00001E15ED257D2030EDB8E070EDB0410E1B2
:1004B00095DB040E5ADB0A0EEECFDBFF0B0EEECF00
:1004C000DBFF0C0EEECFDBFF0D0EEECFDBFF6CD0B3
:1004D000070EDB5003082CE1030EDBAE0DD0B2DAC1
:1004E000020E76DAEFCF14F0156A166A176A14AEA8
:1004F00039D01568166835D0F70EDBCF15F0F80E39
:10050000DBCF16F0020E155E000E165AF70E15C060
:10051000DBFFF80E16C0DBFF15C0E9FF16C0EAFFCF
:10052000EFCF14F00A0E14C0DBFF0B0EDB6A38D0DD
:10053000070EDB50020809E1030EDBAE04D059DBE5
:1005400016AE10D00ED055DB0DD0030EDBAE12D0A0
:1005500079DA020E3DDAF9DA166A176A15AE02D0B8
:1005600016681768E2DA0C0E16C0DBFF0D0E17C016
:10057000DBFF1AD0F70EDBCF16F0F80EDBCF17F04B
:10058000020E165E000E175AF70E16C0DBFFF80EAD
:1005900017C0DBFF16C0E9FF17C0EAFFD6DAC5DADD
:1005A0000C0EDB6A0D0EDB6A060EDB5005E1010E58
:1005B000F36E050EF3CFDBFF150EDB6A160EDB6A5A
:1005C000D950370F146E000EDA20156E390E14C094
:1005D000DBFF3A0E15C0DBFF380EDB6A080EDB6A64
:1005E0000A0EAEDADF50780A12E0200A10E0280A7C
:1005F0000CE0200A0AE03F0A06E00D0A02E0200AA9
:1006000008E1020E05D0080E03D0080EDF26100EFA
:1006100097DA030EDBBE02D0DB92DB94DB50800B5B
:1006200024E08ADAD890030EEB50000A08E6000EA8
:10063000EE5C000EEE58000EEE58000EEE5815E27D
:1006400013DA0B680C680D680E68B8EC0DF00A0E32
:1006500002C0DBFF0B0E03C0DBFF0C0E04C0DBFF90
:100660000D0E05C0DBFF2D0E08D0030EDBA202D05D
:100670002B0E03D0DBA408D0200EF36E170EF3CFA1
:10068000DBFF150EDB2A02D0170EDB6A050EDB50EE
:1006900003E1B7D901E189D0560E146E1E0E156E16
:1006A000000E166E070EDBCF17F0186A196A1A6A69
:1006B00017C00BF018C00CF019C00DF01AC00EF0E6
:1006C000D3D952EC0EF014500224F36E15500320CF
:1006D000F46E16500420F86EF4CFF7FFF3CFF6FF58
:1006E0000800090EF5CFDBFF580EDF5C0FE1610E4D
:1006F000F36E090E7BD90AE3200E146E090EDBCFD0
:10070000E7FF1450E75E090EE7CFDBFF070EDBCFF4
:1007100014F0156A166A176A0FDA14C00BF015C0C8
:100720000CF016C00DF017C00EF0EECF06F0EECFB5
:1007300007F0EECF08F0EFCF09F052EC0EF009C051
:10074000EDFF08C0EDFF07C0EDFF06C0EFFF390E5B
:10075000DBCFE9FFDB063A0EDBCFEAFF01E2DB0687
:10076000090EDBCFEFFF150EDB2A4BD995E1030E07
:10077000DBA61DD06F0EDF5C06E1C1D918E3150EB4
:10078000DB285BDA14D0780EDF5C09E0580EDF5C02
:1007900006E0620EDF5C03E0420EDF5C08E1020E61
:1007A000F36E160EF3CFDBFF02D0150EDB6A030EDD
:1007B000DB50100B0EE0040EDBCF14F0050EDB5007
:1007C000D880145406E2060EDB5003E1040EDB5021
:1007D00034DA95D90AE2050EDBCFE7FF150EDB50C0
:1007E000E75E050EE7CFDBFF02D0050EDB6A040EE5
:1007F000DBCF14F0160E45D9D880145414E2160E2F
:10080000DBCFE6FF150EDBCFE6FF040EDBCFE6FF06
:10081000050EDB50E552E75CE552D880E754E5521F
:10082000D880E7545FD9030EDB50010B0BE1080EB3
:10083000DB5008E0B2D801E08DD0080EDB50BED806
:10084000080EDB6A170EDB5007E088D9170EF1D9C6
:1008500003E1151C01E17ED0160EDB5016E07ED9B7
:10086000300EE66E9FD802E1151C74E077D9DFCF19
:10087000E6FF76EC0DF0E552E552E552F4CF15F0C7
:100880000001F31C02E1151C65E0050EDBCF14F03E
:10089000160EDB50D880145409E2050EDBCFE7FFBB
:1008A000160EDB50E75E050EE7CFDBFF300EE66E7F
:1008B000050ECBD94FE1390EDB2ADBCFE9FF3A0E2B
:1008C00001E3DB2ADBCFEAFF090EEFCFDBFFDB50D2
:1008D0000EE044D9090EADD902E1151C3BE0390EFA
:1008E000DB2ADBCFE9FF3A0EEDE3DB2AEBD755D865
:1008F00031E1160EDBCFE6FF080EC3D8E552E72440
:100900005DD82ED0070EDB50030A1CE0010A14E06C
:10091000030A07E07BD9DBCFEEFF020EDBCFEDFF52
:100920001FD0F5D8196A17AE02D0186819682CD8EC
:10093000BCD819C0EEFF14D0EAD817BE186824D866
:10094000B4D80ED063D9DBCFEFFF0AD07BD905E155
:10095000151C03E1F368F46810D0FCD801E3DB2A2E
:1009600079D94FEF00F0010EDBCF14F0020EDBCF90
:1009700015F014C0F3FF15C0F4FF3B0EE15C02E27A
:10098000E16AE552E16ECBD029D9020EB5EF05F050
:1009900061D90800F550DF6E1200200EE66E080ED9
:1009A00025EF06F076EC0DF0E552E552E552F3CF77
:1009B00014F0F4CF15F00001F31C1200146E156A48
:1009C000D950010F4DD91450EE261550ED221200CA
:1009D000185E000E195AF70E18C0DBFFF80E19C08A
:1009E000DBFF18C0E9FF19C0EAFF1200DBCFF4FFFC
:1009F000F350F45C1200DB50E76E040EE7CFDBFF30
:100A000012000A0EDBCF14F00B0EDBCF15F00C0E2C
:100A1000DBCF16F00D0EDBCF17F0145015101610AB
:100A200017101200130EEECFDBFF140EEDCFDBFF1D
:100A3000130EDBCF14F0140EDBCF15F00001800E87
:100A400015141200F70EDBCF18F0F80EDBCF19F0FB
:100A50001200050EDB50E66ED950130F01D9E55296
:100A6000E750EE6EED6A12000A0EDBCF06F00B0EB9
:100A7000DBCF07F00C0EDBCF08F00D0EDBCF09F05B
:100A80001200DBCFE6FF150EDBCFE6FF050EDB50D5
:100A9000E552E724E552E7241200DB50CED8010EE0
:100AA000F36E060EF3CFDBFF1200EE50EFCFEAFF3E
:100AB000E96E16C0EEFF17C0EEFF18C0EEFF120081
:100AC000D9CFE6FFDACFE6FFE1CFD9FFE2CFDAFFF9
:100AD0001200DFCFE6FFE66AD1EC0EF0E552E552F8
:100AE000F3501200E76E080EE7CFDBFF1200EECFE7
:100AF00014F0EECF15F0EFCF16F0176A1200050EC6
:100B0000DBCF14F0150EDB50D88014541200010E08
:100B1000DBCF16F0020EDBCF17F0186A1200E55299
:100B2000E5CFDAFFE7CFD9FF12000A0E14C0DBFFD2
:100B30000B0E15C0DBFF1200D9500A0F30EF06F084
:100B4000F36E070EF3CFDBFF1200EECF14F0EFCF02
:100B500015F01200010EDB2A020E1200FC0EDBCF94
:100B6000E6FFFD0EDBCFE6FF1200145E000E155A05
:100B7000F70E14C0DBFFF80E15C0DBFF14C0E9FF51
:100B800015C0EAFF1200DA20EA6EEF2AEECFF6FF78
:100B9000000EEF22EECFF7FFEF22EECFF8FF1200AC
:100BA000040EDBCFE6FF130EDB50E552E75C9ADF65
:100BB000DB5004DF060EDB501200090EDB500A0D7D
:100BC000F350DF24D00FE76E090EE7CFDBFFC8EF4D
:100BD00004F0DB50F36E050EF6EF04F0F70EDBCFFA
:100BE00014F0F80EDBCF15F01200DFCFE6FFD2EFE6
:100BF00004F028DF030EECDE77EF05F024EC00F0C4
:100C0000E552E552E552E55200091200BDDEEE5014
:100C1000EFCFEAFFE96E010E1200130EDB50F36E08
:100C2000040EF6EF04F0040EDB50F36E090EF6EF3F
:100C300004F0DBCFE6FFD2EF04F0E76E050EE7CF5E
:100C4000DBFF12008BDFF5EF05F0DBCFE6FF86DF81
:100C5000FEEF05F0D950F90FE96EFF0EC3EF05F076
:0A0C6000E96E000EDA20EA6E1200C1
:060C6A00019E08D0019E6E
:100C700009AE05D0086C091EE86A0922018E09C078
:100C800003F008C002F0136A126A8E0E046E056A41
:100C9000FCEF07F0016A38EC08F050EC08F001B600
:100CA000E0EF07F001A205D001BAE0EF07F0E7EFAF
:100CB00007F001BAF3EF07F001A005D001B8E0EFAB
:100CC00007F0F3EF07F001B8E7EF07F0056A7F0ED2
:100CD0000A24046EE86A05220F50045EE86A055A89
:100CE0001A0E106E0A6A126A136A026A036A0C50BC
:100CF000075E0D50085A0E50095A000E0A5A09E7AD
:100D00000C5007260D5008220E500922000E0A2210
:100D100001D0128AD8900736083609360A36D8909C
:100D20001236133602360336102EE1D7095008105A
:100D30000710D8A4128AFCEF07F0016A38EC08F01B
:100D400050EC08F001B6E0EF07F001A205D001B8C1
:100D5000E0EF07F0E7EF07F001AA05D001B0E0EF00
:100D600007F0E7EF07F001B002D001A802D0F3EFDF
:100D700007F0056A0F500A24046EE86A05227E0E09
:100D8000045EE86A055A126A136A026A036A0E5020
:100D90000902F4CF03F0F3CF02F00D500902F35033
:100DA0001326F4500222000E03220E500802F350C4
:100DB0001326F4500222000E03220C500902F350B5
:100DC0001226F4501322000E022203220D500802B4
:100DD000F3501226F4501322000E022203220E506A
:100DE0000702F3501226F4501322000E02220322AF
:100DF0000C500802F4501226000E13220222032285
:100E00000D500702F4501226000E13220222032274
:100E1000FCEF07F009C013F008C012F007C011F092
:100E200007500C02F4CF05F0F3CF04F008500D0288
:100E3000F4CF07F0F3CF06F00C02F3500526F45080
:100E40000622E86A072211500D02F3500526F450DD
:100E50000622E86A072209500C02F3500626F450D5
:100E6000072209500D02086AE86A0822F350072693
:100E7000F450082211500E02F3500626F4500722B7
:100E8000096AE86A0822092212500E02F350072666
:100E9000F4500822E86A092213500E02F350082683
:100EA000F4500922000C016A38EC08F001B65DEF3D
:100EB00007F001A20ED001B405D07F0E096EFF0E1F
:100EC000086E1FD0800E096E086A1BD0096A086A76
:100ED00018D001B0FBD78F0E0A60EDD77E0E0A64E2
:100EE000F5D78E0E0A5C05E0D890093208320A2A3E
:100EF000F8D701A406D0086C091EE86A092209AED9
:100F0000E5D712008BEC07F001B6000C01B0000C25
:100F100001B4000C010C016A38EC08F050EC08F048
:100F200001B6120001AE08D001A004D001A802D081
:100F300001801200019012000F500A5C0BE10E506C
:100F4000095C08E10D50085C05E10C50075C02E10A
:100F500001801200D8A002D0018E10D00A500FC01C
:100F60000AF00F6E09500EC009F00E6E08500DC049
:100F700008F00D6E07500CC007F00C6E0F500A5CA5
:100F800010E0FF0F09E0019001B403D001AE01842D
:100F9000120001AE019412000F2AD8900E320D32C9
:100FA0000C320C50075E0D50085A0E50095A09BEFB
:100FB000EAD7D8900736083609360A2EF8D7C8D7A8
:100FC0007F0E0A6EFF0E096E086E076E12007F0E0E
:100FD00001BEFF0E0A6E02D07F0E0A6E800E096EF1
:100FE000086A076AF3D701AE04D0800E0A6E096A58
:100FF000F7D70A6A096AF4D70350021013101210C7
:10100000F8E005BEF0D703BE0CD004500510EBE0AD
:10101000D89012361336023603360406D8A00506D9
:10102000F2D70550D4E10428D2E012AE11D07F0EE1
:10103000121402E113A00CD0132AE86A0222032240
:1010400007E3D880033202321332042A0428BFE0B7
:101050000450C9E013C007F002C008F00334096E61
:1010600004300A6E09320A9E01BE0A8EE6EF07F0CE
:1010700009360A3602E30184017E06E101800A6A2C
:10108000096A086A076A12000A2803E0D880093250
:101090001200D890093202E101821200018612008A
:1010A0000E360F3602E3018C017E06E101880F6ADD
:1010B0000E6A0D6A0C6A12000F2803E0D8800E3207
:1010C0001200D8900E32EAE1018A120009C013F032
:1010D00008C012F008500D02F4CF07F0F3CF06F06D
:1010E00009500E02F4CF09F0F3CF08F00D02F350CF
:1010F0000726F4500822E86A092212500E02F35023
:101100000726F4500822E86A09220EAE8CEF08F098
:101110001250085E1350095A13AE000C0D50085EB1
:061120000E50095A000CFC
:0A11260000000000000000000000BF
:1011300000000000000000000000000000000000AF
:10114000000000D01200050EE66EE3EC0EF0E55252
:1011500000D012000F0EE66EE3EC0EF0E55200D068
:101160001200850EE66E99EC0EF0E552850EE66EE5
:1011700023EC0EF0E5521200D9CFE6FFDACFE6FFFE
:10118000E1CFD9FFE2CFDAFF160EE12402E3E168F6
:10119000E652E16EDE6ADD6AF8C007F0F9C008F0D9
:1011A000FAC009F0FBC00AF053EC07F008C0DEFFFC
:1011B00009C0DDFFDECFE6FFDDCFE6FF4D0EE66EB8
:1011C0001E0EE66E000EE66ED950020FE66E000EA1
:1011D000DA20E66ED1EC0CF0146E070EE15C02E250
:1011E000E16AE552E16E145042EC0BF0000901E0B7
:1011F000FBD7400EE66E46EC0CF0E552D950020FDC
:10120000E66E000EDA20E66E9AEC0BF0E552E5523F
:10121000640EE66EBAEC0EF0E552160EE15C02E2E8
:10122000E16AE552E16EE552E5CFDAFFE7CFD9FF9B
:101230001200836A956A280EE66EDCEC0AF0E5522D
:1012400042EC0BF0000901E0FBD7E66A46EC0CF03B
:10125000E552060EE66E75EC0CF0E55242EC0BF032
:10126000000901E0FBD70F0EE66E75EC0CF0E552BD
:1012700042EC0BF0000901E0FBD700D01200D08E49
:10128000A190A2809F809D809E90F28E95968396DD
:10129000948212000001E451E51130E10001EC51AB
:1012A000ED1125E142EC0BF0000901E0FBD7E66A05
:1012B00046EC0CF0E55242EC0BF0000901E0FBD7E4
:1012C0003E0EE66E1E0EE66E000EE66E61EC0BF054
:1012D000E552E552E55242EC0BF0000901E0FBD784
:1012E00076EC0EF0F3CFE0F0F4CFE1F006D076EC40
:1012F0000EF0F3CFE2F0F4CFE3F010D00001010ED6
:10130000E41901E1E5510AE10001EC51ED1106E1BA
:1013100076EC0EF0F3CFE2F0F4CFE3F00001E42B33
:10132000000EE5230001010ED880E455000EE555BE
:1013300007E30001010EEC1901E1ED5101E0DBD002
:10134000010E0001EC6FED6BE8C01AF0E9C01BF074
:101350001C6A0C680D680E6A1AC007F01BC008F002
:101360001CC009F00AEC07F004C01AF005C01BF01D
:1013700006C01CF0E2C01DF0E3C01EF01F6A1A5048
:101380001D24176E1B501E20186E1C501F20196E36
:10139000E0C020F0E1C021F0226A2050175C146EFA
:1013A00021501858156E22501958166E14C0E6F0C8
:1013B00015C0E7F00001F02B000EF123E2C0EAF0C7
:1013C000E3C0EBF0EAC0E0F0EBC0E1F0E6C008F00B
:1013D000E7C009F035EC06F007C014F008C015F0BE
:1013E00009C016F00AC017F00C6A0D6A7A0E0E6E6C
:1013F000440E0F6E14C007F015C008F016C009F0B7
:1014000017C00AF04AEC06F007C0F4F008C0F5F087
:1014100009C0F6F00AC0F7F00C6A0D6A480E0E6EAD
:10142000420E0F6EF4C007F0F5C008F0F6C009F0E8
:10143000F7C00AF082EC07F0010A05E10001F22B87
:10144000000EF32383760001E46BE56B00010A0EC6
:10145000D880F055000EF15546E2F2C008F0F3C016
:1014600009F035EC06F007C014F008C015F009C00B
:1014700016F00AC017F00C6A0D6A200E0E6E410EAF
:101480000F6E14C007F015C008F016C009F017C0A1
:101490000AF04AEC06F007C0F8F008C0F9F009C0FD
:1014A000FAF00AC0FBF00C6A0D6AC80E0E6E420E0E
:1014B0000F6EF8C007F0F9C008F0FAC009F0FBC0E1
:1014C0000AF09DEC06F007C0F8F008C0F9F009C07A
:1014D000FAF00AC0FBF0010E0001EE6FEF6B37EC83
:1014E0000FF034EC0FF00001010EEE1901E1EF51A5
:1014F00002E142DE83961200E9CFE4FFEACFE4FF87
:10150000F6CFE4FFF7CFE4FFF8CFE4FFF5CFE4FF39
:10151000F3CFE4FFF4CFE4FFFACFE4FFFBCFE4FF27
:1015200000EE00F0140EE80403E3EECFE4FFFBD777
:1015300000EE14F00F0EE80403E3EECFE4FFFBD758
:10154000E652F29E9EA005D09E900001E82B000E70
:10155000E923A1A002D0A1909DDEF28EE55200EE1B
:1015600022F00F0EE80403E3E5CFEDFFFBD700EE1A
:1015700013F0140EE80403E3E5CFEDFFFBD7E5CF4E
:10158000FBFFE5CFFAFFE5CFF4FFE5CFF3FFE5CFB3
:10159000F5FFE5CFF8FFE5CFF7FFE5CFF6FFE5CFA5
:1015A000EAFFE5CFE9FF11000001EC6BED6B67DEB0
:0815B000D8DD3FDEFFD7120079
:0815B800D9CFE6FFDACFE6FF10
:1015C000E1CFD9FFE2CFDAFF0F0E83160F0E95168B
:1015D0009594959295908C948C928C90AAEC08F0AE
:1015E000300EE66E82D9E552050EE66EBAEC0EF0CC
:1015F000E552300EE66E79D9E552010EE66EBAEC90
:101600000EF0E552320EE66E70D9E5523BD8000975
:1016100001E0FCD737D8000901E0FCD7FD0EDBCF95
:10162000E6FF63D9E5522ED8000901E0FCD7080E89
:10163000E66E5BD9E55226D8000901E0FCD70F0E13
:10164000E66E53D9E5521ED8000901E0FCD7010E21
:10165000E66E4BD9E55216D8000901E0FCD7040E1E
:10166000E66E43D9E5520ED8000901E0FCD7800EA2
:10167000E66E0CD9E55200D0E552E5CFDAFFE7CFB0
:10168000D9FF12008C848C9293EC08F08C8093EC40
:1016900008F083AE0BD08C9093EC08F08C8093EC28
:1016A00008F08C908C94010E0BD00AD08C9093ECA7
:1016B00008F08C8093EC08F08C908C94000E00D095
:1016C0001200D9CFE6FFDACFE6FFE1CFD9FFE2CFB4
:1016D000DAFFFB0EDBCFF6FFFC0EDBCFF7FFFD0ED4
:1016E000DBCFF8FF0800F5501EE0CCDF000901E079
:1016F000FCD7FB0EDBCFF6FFFC0EDBCFF7FFFD0EBA
:10170000DBCFF8FF0800F550E66E1DD9E552D95041
:10171000FB0FE96EFF0EDA20EA6EEE2A000EEE22D3
:10172000000EEE22D6D700D0E552E5CFDAFFE7CFA4
:10173000D9FF1200D9CFE6FFDACFE6FFE1CFD9FF1C
:10174000E2CFDAFFFC0EDBCFE9FFFD0EDBCFEAFFD5
:10175000EF5014E097DF000901E0FCD7FC0EDBCF6F
:10176000E9FFFD0EDBCFEAFFEF50E66EECD8E55265
:10177000FC0EDB2AFD0E01E3DB2AE4D700D0E552A4
:10178000E5CFDAFFE7CFD9FF1200D9CFE6FFDACFF6
:10179000E6FFE1CFD9FFE2CFDAFFE6528C848C92EC
:1017A00093EC08F08C8093EC08F0F00E8314DF6E5D
:1017B0008C9093EC08F08C8093EC08F083380F0B3E
:1017C0000F0BDF128C908C947F0EDF1400D0E5524B
:1017D000E552E5CFDAFFE7CFD9FF1200D9CFE6FF18
:1017E000DACFE6FFE1CFD9FFE2CFDAFFE6528C8411
:1017F0008C8293EC08F08C8093EC08F0F00E83144C
:10180000DF6E8C9093EC08F08C8093EC08F08338BA
:101810000F0B0F0BDF128C908C928C94DF5000D04A
:10182000E552E552E5CFDAFFE7CFD9FF1200D9CF75
:10183000E6FFDACFE6FFE1CFD9FFE2CFDAFF0F0E06
:1018400095160F0E8316FD0EDB504009F00B831228
:101850008C948C9293EC08F08C8093EC08F08C9034
:101860000F0E8316FD0EDB38F00BF00B831293EC9A
:1018700008F08C8093EC08F08C90F00E951200D05C
:10188000E552E5CFDAFFE7CFD9FF1200D9CFE6FF67
:10189000DACFE6FFE1CFD9FFE2CFDAFF0F0E9516E0
:1018A0000F0E8316FD0EDB508009F00B83128C9413
:1018B0008C9293EC08F08C8093EC08F08C900F0ED7
:1018C0008316FD0EDB38F00BF00B831293EC08F05F
:1018D0008C8093EC08F08C90F00E951200D0E552BD
:1018E000E5CFDAFFE7CFD9FF1200D9CFE6FFDACF95
:1018F000E6FFE1CFD9FFE2CFDAFF0F0E95160F0E0C
:101900008316FD0EDB50F00B83128C948C9293ECBB
:1019100008F08C8093EC08F08C900F0E8316FD0E6F
:10192000DB38F00BF00B831293EC08F08C8093EC17
:1019300008F08C90F00E951200D0E552E5CFDAFF5A
:10194000E7CFD9FF1200D9CFE6FFDACFE6FFE1CF2C
:10195000D9FFE2CFDAFF0F0E95160F0E8316FD0E9C
:10196000DB50F00B83128C828C9493EC08F08C800B
:1019700093EC08F08C900F0E8316FD0EDB38F00B05
:10198000F00B831293EC08F08C8093EC08F08C90B1
:10199000F00E951200D0E552E5CFDAFFE7CFD9FF80
:0219A000120033
:0E19A200D9CFE6FFDACFE6FFE1CFD9FFE2CFE3
:1019B000DAFFE652E652E652E652D950F90F146EBB
:1019C000FF0EDA20156E020E14C0DBFF030E15C0E9
:1019D000DBFF020EDBCFE6FF030EDBCFE6FFF90EE7
:1019E000DBCFE6FFFA0EDBCFE6FFFB0EDBCFE6FF39
:1019F000D950FC0FE66EFF0EDA20E66E3AEC00F0EE
:101A0000146E070EE15C02E2E16AE552E16E1450E9
:101A1000F3CFDEFFF4CFDDFFFC0EDBCFE9FFFD0EE1
:101A2000DBCFEAFFEF6ADECF14F0DDCF15F014C094
:101A3000F3FF15C0F4FF040EE15C02E2E16AE55237
:0E1A4000E16EE552E5CFDAFFE7CFD9FF1200E5
:021A4E003A0E4E
:101A5000F66E000EF76E000EF86E01010900F550EB
:101A6000016F0900F550026F03E1016701D03DD01D
:101A70000900F550FC6F0900F550FD6F0900F550A5
:101A8000FE6F09000900F550E96E0900F550EA6E95
:101A9000090009000900F550FF6F0900F550006FBB
:101AA00009000900F6CF03F1F7CF04F1F8CF05F1F3
:101AB000FCC0F6FFFDC0F7FFFEC0F8FF0001FF53BA
:101AC00002E1005307E00900F550EE6EFF07F8E26F
:101AD0000007F9D703C1F6FF04C1F7FF05C1F8FFFE
:0C1AE00001010107000E025BBFD71200DD
:041AEC00D9CFE6FF69
:101AF000DACFE6FFE1CFD9FFE2CFDAFFFB0EDBCF93
:101B000014F0FC0EDBCF15F00001800E15141AE165
:101B1000FB0EDBCFE9FFFC0EDBCFEAFFEECFF3FFDE
:101B2000EDCFF4FFEE2A000EEF22F3CFE9FFF4CF62
:101B3000EAFFFD0EDBCFEFFFEF50156AF36E15C025
:101B4000F4FF10D0FB0EDB50FE0806E1FD0EDBCFEC
:101B5000E6FF11EC0FF005D0FD0EDBCFE6FF3AEC0F
:101B60000FF0E552E552E5CFDAFFE7CFD9FF1200DB
:101B700006500B02F3CF02F0F4CF03F00C02F35047
:101B80000326000EF420046E06500D02F3500426C6
:101B9000000EF420056E06500E02F3500526075085
:101BA0000B02F3500326F4500422000E05220750C6
:101BB0000C02F3500426F450052207500D02F35096
:101BC000052608500B02F3500426F4500522085055
:101BD0000C02F350052609500B02F35005261200A3
:101BE000FE0EE3CFE9FFFF0EE3CFEAFFF36AF46AEC
:101BF000EE5203E0F34AF42AFBD71200FF0EE3CFC4
:101C0000F8FFE552FF0EE3CFF7FFE552FF0EE3CFFB
:101C1000F6FFE552E66AE66AE66A0900F55209E06F
:101C2000FD0EE32A05E1FE0EE32A02E1FF0EE32AA0
:101C3000F4D7FD0EE3CF07F0FE0EE3CF08F0FF0E62
:061C4000E3CF09F01200E1
:0A1C4600D9CFE6FFDACFE6FFE1CFC9
:101C5000D9FFE2CFDAFFE652E652FD0EDB500F0B62
:101C6000BA6E050EF66EF76A300EF86E0800F55083
:101C7000010B03E0010EDB6802D0010EDB6AFD0EF2
:101C8000DBAE02D0A190A080010EDB5002E0948276
:101C900001D09386E552E552E552E5CFDAFFE7CF72
:041CA000D9FF120056
:0C1CA400056A046A036A026A200EE76EFB
:101CB000D89006360736083609360236033604361B
:101CC00005360B50025C0C5003580D5004580E5052
:101CD000055809E30B50025E0C50035A0D50045A8C
:0C1CE0000E50055A062AE72EE4D7120029
:041CEC00D9CFE6FF67
:101CF000DACFE6FFE1CFD9FFE2CFDAFFE652E652D4
:101D000001010693A1B00683BB50DF6E010EBCCF6C
:101D1000DBFFDECF14F0DDCF15F014C0F3FF15C0EC
:101D2000F4FFE552E552E552E5CFDAFFE7CFD9FF00
:021D300012009F
:0E1D3200D9CFE6FFDACFE6FFE1CFD9FFE2CF4F
:101D4000DAFFFD0EDB507E0BCD6EFD0EDBAC02D05C
:101D5000CD8E01D0CD9ECF6ACE6A9E90DBAE02D0F2
:101D60009D8001D09D90CD80E552E5CFDAFFE7CF91
:041D7000D9FF120085
:0C1D7400FF0EE350246EEF0E01D0F30EC2
:101D8000E76EE72EC1EF0EF00C0E236EE76AE72E2A
:101D9000C7EF0EF0232EC6EF0EF0242EBFEF0EF08D
:021DA00012002F
:0E1DA200F36AF46AFF0EE124E96EFF0EE22000
:101DB000EA6EED6607D02F0EEF6404D03A0EEF60A6
:061DC00001D0F32A12001D
:0A1DC600FF0EE350246E480E01D01A
:101DD0004C0EE76EE72EFED7E76AE72EFED7242EDD
:061DE000F7D7000012001D
:0A1DE600000EF36E00EE00F0060E92
:101DF00001D81200EA6002D0EE6AFCD7F350E96025
:061E00001200EE6AFCD79F
:0A1E060010EE80F020EE80F0F86A84
:101E1000019C27EC0DF03BEC0FF0D4EC0AF0FBD763
:021E20001200AE
:0E1E2200FF0EE350ACBA04D0AF6AAB8EAC8AB0
:0E1E3000949CACA2FED7AD6EF36EF46A120065
:021E3E004361FE
:101E40006C63756C6174696E672E2E2E0048525655
:061E50003A202564250084
:0A1E56003031323334353637383975
:071E60006162636465660026
:061E6800CD909D901200D8
:021E6E00A09042
:041E7000BA6A120038
:021E740012005A
:021E7600120058
:081E7800000000000000000062
:101E80000000000000000000000000000000000052
:041E9000000000004E
:020000040030CA
:0100010022DC
:010003000EEE
:010006008178
:00000001FF
